:020000040800F2
:10000000B805002001010008612000085D19000802
:100010005D200008A5010008ED2300080000000095
:10002000000000000000000000000000992300080C
:100030000D05000800000000952300089D2300081E
:100040001B0100081B0100081B0100081B01000820
:100050001B0100081B0100081B0100081B01000810
:100060001B0100081B0100081B0100081B01000800
:100070001B0100081B0100081B0100081B010008F0
:100080001B0100081B0100081B0100081B010008E0
:100090001B0100081B0100081B0100081B010008D0
:1000A000A5230008B12300081B0100081B0100085C
:1000B0001B0100081B0100081B0100081B010008B0
:1000C0001B0100081B0100081B0100081B010008A0
:1000D0001B0100081B0100081B0100081B01000890
:1000E0001B0100081B0100081B010008DFF80CD0F1
:1000F00000F040F80048004759270008B8050020E4
:100100000648804706480047FEE7FEE7FEE7FEE7B1
:10011000FEE7FEE7FEE7FEE7FEE7FEE7A1230008B5
:10012000ED000008D2B201E000F8012B491EFBD21D
:1001300070470022F6E710B513460A4604461946F2
:10014000FFF7F0FF204610BD30B50B4601460020FA
:100150002022012409E021FA02F59D4205D303FA89
:1001600002F5491B04FA02F52844151EA2F101020A
:10017000F1DC30BD1CB509480090094801900546E6
:10018000009C06E0E06840F0010394E8070098470F
:100190001034AC42F6D3FFF7ADFF00009C2B0008F3
:1001A000BC2B0008FEE700002DE9F04383B040F6C9
:1001B0000009C4F201094846102100F0CBFA0028DA
:1001C00064D04EF2180541F64016CEF2000500202C
:1001D000C0F20106012700BF01970199044689B9C1
:1001E0004846102100F0B6FA002849D0C72C04F187
:1001F0000100F1D344E000BF0199081A0190019871
:100200000028EDD00198B0F5617F94BF01984FF4BC
:100210006170296800EBC002524201EBC202002A61
:1002200016D400BF2B688B42E6DA9342E4DB2B68DE
:100230008B42E1DA9342DFDB2B688B42DCDA9342BC
:10024000DADB2B688B42D7DA9342EBDAD4E700BFD4
:10025000324400BF2B688B4201DD9342CCDD2B681A
:100260008B4201DD9342C7DD2B688B4201DD934257
:10027000C2DD2B688B42EDDD9342EBDCBCE700BFB7
:10028000C62C03D9012003B0BDE8F08348461021F5
:1002900000F060FA20B1002003B0BDE8F08300BF99
:1002A0004EF2180541F64016CEF200050020C0F2CD
:1002B00001064FF0010800BFCDF8088002990746FB
:1002C00081B94846102100F045FA002848D1EF2FA7
:1002D00007F10100F0D343E00299081A0290029856
:1002E0000028EED00298B0F5617F94BF02984FF4D9
:1002F0006170296800EBC002524201EBC202002A81
:1003000016D400BF2B688B42E6DA9342E4DB2B68FD
:100310008B42E1DA9342DFDB2B688B42DCDA9342DB
:10032000DADB2B688B42D7DA9342EBDAD4E700BFF3
:10033000324400BF2B688B4201DD9342CCDD2B6839
:100340008B4201DD9342C7DD2B688B4201DD934276
:10035000C2DD2B688B42EDDD9342EBDCBCE700BFD6
:100360000020EE2F88BF012003B0BDE8F08300001D
:1003700010B584B041F21800C4F20200016840F6E2
:10038000000441F0040101600068C4F2010400F0BF
:10039000040000900098102000900120019000209F
:1003A0000290032003906946204600F0CBF82046D7
:1003B0001021012200F0D4F900F004F8FFF7F4FE58
:1003C00004B010BD70B582B040F60004C4F2010460
:1003D0004EF2180541F64016204610210022CEF2BA
:1003E0000005C0F2010600F0BBF940F2EE2001E08A
:1003F0000099081A00900098E0B30098B0F5617F6A
:1004000094BF00984FF46170296800EBC00252421B
:1004100001EBC202002A15D42B688B42E8DA934222
:10042000E6DB2B688B42E3DA9342E1DB2B688B42FD
:10043000DEDA9342DCDB2B688B42D9DA9342EBDACB
:10044000D6E700BF324400BF2B688B4201DD9342E8
:10045000CEDD2B688B4201DD9342C9DD2B688B42D8
:1004600001DD9342C4DD2B688B42EDDD9342EBDC72
:10047000BEE700BF20461021012200F071F90F20D5
:1004800002E000BF0199081A01900198E0B30198B9
:10049000B0F5617F94BF01984FF46170296800EB5B
:1004A000C002524201EBC202002A15D42B688B42D3
:1004B000E8DA9342E6DB2B688B42E3DA9342E1DB36
:1004C0002B688B42DEDA9342DCDB2B688B42D9DA75
:1004D0009342EBDAD6E700BF324400BF2B688B4271
:1004E00001DD9342CEDD2B688B4201DD9342C9DDF5
:1004F0002B688B4201DD9342C4DD2B688B42EDDD1E
:100500009342EBDCBEE700BF02B070BD7047000055
:10051000EFF3108072B600BFFEE70000B0B50446EE
:1005200000F024F9054640F20400C2F20000007811
:10053000611C18BF044400BF00F018F9401BA04222
:10054000FAD3B0BD2DE9F04F82B00E68002E00F056
:10055000FD8041F20042C4F20102042340F2004E49
:10056000904208BF03234FF6FF7CC4F2010E0093B4
:1005700000240123C1F2100C4FF0000A4FF00009D3
:1005800044E000BF012704F00C030F229A402BEA3D
:10059000020207FA03F34FEA9A051A4346F82520A8
:1005A0004E6840F20C45F202DEF8082054BF22EA01
:1005B000080242EA0802C4F20105CEF808202A68BF
:1005C000B30254BF22EA080242EA08022A60B303D7
:1005D000DEF8042054BF22EA080242EA0802F303CC
:1005E000CEF80420DEF800204FF0010354BF22EAC9
:1005F000080242EA0802CEF800200E680AF1010A59
:1006000036FA0AF204F1040400F0A08003FA0AFBAF
:1006100016EA0B08F1D04E68664511DC122E55D84B
:10062000DFE806F0340A44485454545454545454A3
:1006300054545454544C5000D1F80C9046E000BF30
:100640004FF6FF72C1F2210296420FDC0022C1F286
:10065000110296421AD00022C1F21202964215D01F
:100660000022C1F22102964210D02FE00022C1F2F6
:10067000220296420AD00022C1F23102964205D0EF
:100680000022C1F23202964220D100BF8A684AB1EC
:10069000012A14BFC0F814B0C0F810B04FF0080918
:1006A00014E000BF4FF0040910E000BFCA6802F177
:1006B00008090BE04FF0000908E000BFCA6802F12A
:1006C000040903E0CA6802F10C0900BF224606468D
:1006D000B8F5807F24BF203A043637680F2595404F
:1006E00027EA050509FA02F22A433260CA79D206DE
:1006F0007FF583AF41F21803C4F202031A68AEF526
:100700007E7642F001021A601A6802F0010201923C
:10071000019A2AF0030256F802B040F60002C4F231
:100720000102904210D040F60042C4F20102904211
:100730003FF428AF41F20002C4F20102009F904250
:1007400008BF02271FE700BF00271CE702B0BDE873
:10075000F08F00008068084018BF0120704700003B
:10076000002A08BF090401617047000040F2B4107C
:10077000C2F2000000687047002804BF01207047E3
:10078000F0B581B0044690F83D0028B9002084F807
:100790003C00204600F050F9242084F83D002068F9
:1007A000016821F001010160016841F4004101602C
:1007B000016821F40041016000F008FB636848F221
:1007C000A16CC0F2010C40F60011C0F23D0163457E
:1007D0003CBF48F28041C0F21E01884202D2012093
:1007E00001B0F0BD4DF68361C4F21B31A0FB0112D4
:1007F0002168970CD1F804E04FF496762EF03F056F
:1008000045EA92454D60774348F638160D6AC0F2C6
:100810004106A7FB067625F03F07634538BF960CD7
:10082000721C3A430A62CA6948F2A0664CF6FF7726
:10083000C0F20106B34222EA07020BD801385B007E
:10084000B0FBF3F001306FF31F30042898BF042091
:100850001BE000BFA768013857B119277B43B0FBE5
:10086000F3F001306FF31F3070B100F5804007E006
:1008700003EB4303B0FBF3F001306FF31F3018B10B
:1008800000F5004001E000BF01201043C861086886
:10089000D4E9072320F0C00010431843086088689B
:1008A00048F2FF3204F10C0790438CCF18431043F9
:1008B000A6698860C86820F0FF0038433043C860EC
:1008C000086840F00100086000202021206484F8BE
:1008D0003D10206384F83E0001B0F0BD2DE9F043E7
:1008E00083B0994616460F460446FFF73FFF94F83B
:1008F0003D10202924D10546206800BF8169890761
:100900001AD5FFF733FF411B20681A29F6D38169F6
:100910008907F3D500202021206384F83D1084F856
:100920003E00216C41F02001216484F83C0002204B
:1009300003B0BDE8F08300BF94F83C10012903D157
:10094000022003B0BDE8F083012284F83C20036854
:10095000DDE90B180A9ADB0703D1036843F00103B2
:100960000360036823F400630360212084F83D00E2
:10097000402084F83E000020206462626185608D22
:10098000394620850020CFF6FF70E06220463246CF
:100990004B46CDE9008500F0E3FF18B1012003B01C
:1009A000BDE8F083208D98B9204641462A4601F0E3
:1009B0003BF888B3206C0428F0D12068016841F42A
:1009C00000710160012003B0BDE8F0830004EBD0AA
:1009D000204641462A4601F0D7F90028EAD1616A4B
:1009E0002268084610F8013B1361238D6062581E8F
:1009F0002085678D013F678557697F07E6D5070426
:100A0000E4D048781061881C6062981E2085618D52
:100A100001396185DAE700BF2068016841F400719F
:100A20000160202084F83D00002084F83E0084F816
:100A30003C0003B0BDE8F08310B586B045F200413C
:100A40000068C4F2000100228842049202D006B07D
:100A500010BD00BF41F21804C4F20204206840F047
:100A600008002060206800F0080001900198C02074
:100A70000290122003900320059001F5384002A94E
:100A8000FFF760FD606840F400106060606800F48B
:100A900000100190019806B010BD000040F2040063
:100AA00040F2B411C2F20000C2F2000100780A68FC
:100AB000104408607047000080B542F20000C4F2A4
:100AC0000200016841F010010160032000F08CF881
:100AD0000F2000F005F800F027F8002080BD00008E
:100AE00070B540F20406C2F2000640F224013278EA
:100AF000C2F200014FF47A730968B3FBF2F20446C4
:100B0000B1FBF2F1084600F089FB0F2C4FF0010514
:100B100008D838B94FF0FF3021460022002500F0F8
:100B200037F87460284670BD82B041F21800C4F2F4
:100B300002000168022241F001010160016801F038
:100B4000010101910199416841F080514160406883
:100B500000F08050009000980420C4F20100016869
:100B600062F31A61016002B070470000002848BFBC
:100B7000704700F01F01012202FA01F11C2202EA73
:100B8000D0004EF20012CEF20002815070470000F9
:100B900010B54EF60C5CCEF2000CDCF80030C3F35E
:100BA000022E8EF00704042C28BF0424BEF1030398
:100BB0004FF0FF3E0EFA04F438BF0023A1439940E2
:100BC0000EFA03F39A43114300F00F0200F1604361
:100BD0000901043A03F564436244002848BF02F166
:100BE0000C03197010BD00004EF60C51CEF200013E
:100BF0000A684FF6FF031A4060F30A2242F0806051
:100C000040F0FD7008607047002804BF0120704765
:100C10002DE9F04381B042F20008C4F20208044614
:100C2000D8F800000D4600F0070088420CD2D8F832
:100C3000000020F007002843C8F80000D8F80000A2
:100C400000F00700A8426CD1206841F20409810736
:100C5000C4F2020917D5410705D5D9F8001041F4AF
:100C6000E061C9F80010010705D5D9F8001041F47A
:100C70006051C9F80010D9F80010A26821F0F00105
:100C80001143C9F80010C00742D1D8F8000000F0A5
:100C90000700A8420CD9D8F8000020F0070028432C
:100CA000C8F80000D8F8000000F00700A84238D1CA
:100CB0002068410707D5D9F80010E26821F4E06107
:100CC0001143C9F80010000708D5D9F800002169C0
:100CD00020F4605040EAC100C9F80000D9F80020B3
:100CE00002F00C00082841F20020C0F27A0051D135
:100CF00042F66A33C2F38341C0F60003595CD20363
:100D00003CD440F60010C0F23D00484342E000BF32
:100D1000606802280AD001282AD159F8041C8903E6
:100D200008D4012001B0BDE8F08300BF59F8041CCD
:100D30008901F6D5D9F8001021F003010843C9F85C
:100D40000000FFF713FD064641F28837D9F800008E
:100D5000616800F00C00B0EB810F96D0FFF706FD44
:100D6000801BB842F2D9032001B0BDE8F08300BF78
:100D700059F8041C8907D4D5DCE700BFD9F8002056
:100D800042F66833C2F34042C0F600039A5C48431F
:100D9000B0FBF2F0D9F8001042F65032C1F3031163
:100DA000C0F60002515C40F2240220FA01F140F248
:100DB0000800C2F200000068C2F200021160FFF7F2
:100DC0008FFE002001B0BDE8F083000040F2240057
:100DD00041F20401C2F20000C4F202010068096895
:100DE00042F66032C1F30221C0F60002515CC840F5
:100DF0007047000040F2240041F20401C2F20000FA
:100E0000C4F202010068096842F66032C1F3C221EF
:100E1000C0F60002515CC84070470000002804BFC3
:100E2000012070472DE9F04182B00446007841F27C
:100E30000006C007C4F202060CD0706800F00C0077
:100E4000042840F081803068800303D56068002862
:100E500000F04E81207880071BD5706810F00C0FD1
:100E600009D0706800F00C00082840F08B80706892
:100E7000C00300F187803068800703D5206901280E
:100E800040F036813068616920F0F80040EAC10026
:100E900030602078000713D4207840072CD4E5690F
:100EA000002D00F02081706800F00C00082840F050
:100EB000AF80012D40F00C81012002B0BDE8F0812F
:100EC000A069002800F08C800020C4F2422001219B
:100ED000C0F88014FFF74AFC054600BF706A80071F
:100EE00000F1BA80FFF742FC401B0228F6D903202C
:100EF00002B0BDE8F08100BFF0695FEAC00808D425
:100F0000F06940F08050F061F06900F0805000908E
:100F1000009847F20007C4F200073868C0054DD4B6
:100F2000386840F480703860FFF720FC054600BF49
:100F30003868C00542D4FFF719FC401B6428F7D974
:100F4000032002B0BDE8F081706800F00C000828B2
:100F500003D17068C0033FF576AF6068002800F0E9
:100F60000981B0F5A02F00F01D81B0F5803F00F0A1
:100F70001D81306820F480303060306820F480209B
:100F800017E100BF2069002840F20000C4F24220AF
:100F900000F08C8001210160FFF7E8FB054600BFEF
:100FA000306880073FF56EAFFFF7E0FB401B02287B
:100FB000F6D9032002B0BDE8F08100BFE068002848
:100FC00000F09A80052800F0B180012800F0B2807E
:100FD000306A20F001003062306A20F00400ACE09A
:100FE0000020C4F242200021C0F88014FFF7BEFBAD
:100FF000054600BF706A80077FF54EAFFFF7B6FB6E
:10100000401B0228F6D9032002B0BDE8F08100BFE2
:101010000027C4F2422700203866FFF7A7FB022D05
:1010200005460DD13068800140F1D680FFF79EFB68
:10103000401B02284FF00300F4D902B0BDE8F08154
:10104000306880014FD5FFF791FB401B02284FF01D
:101050000300F5D9F1E700BF40F22400C2F200001E
:10106000006844F6D351C1F26201A0FB0101480AB5
:10107000019000BF00BF0198411E002801913FF47C
:101080000BAF00BF0198411E002801913FF404AF4F
:1010900000BF0198411E002801913FF4FDAE00BF42
:1010A0000198411E00280191E4D1F5E6002101607C
:1010B000FFF75CFB054600BF306880077FF5E9AEAF
:1010C000FFF754FB401B02284FF00300F4D9B4E7AC
:1010D0007068216A00F480328A4209D1616A00F4A2
:1010E0007010884204D1002002B0BDE8F08100BF3A
:1010F000012002B0BDE8F081306A20F001003062CA
:10110000306A20F004003062FFF730FB054641F200
:10111000883700BF306A800722D5FFF727FB401BC6
:10112000B8424FF00300F5D987E700BF306A40F0BE
:1011300004003062306A40F001003062FFF716FBB5
:10114000054641F2883700BF306A800708D4FFF7B0
:101150000DFB401BB842F7D9032002B0BDE8F08177
:10116000B8F1000F3FF59BAEF06920F08050F061C0
:1011700095E600BF306820F480303060306820F49D
:1011800080203060FFF7F2FA054600BF3068800328
:101190007FF560AEFFF7EAFA401B64284FF00300CA
:1011A000F4D94AE7306840F480203060306840F479
:1011B00080303060FFF7DAFA054600BF3068800300
:1011C0003FF548AEFFF7D2FA401B6428F6D903205A
:1011D00002B0BDE8F08100BF206AB0F5803F05D1C4
:1011E0007168A26821F40031114371607168626A0C
:1011F00021F4741111430843706001203866FFF731
:10120000B5FA0446306880013FF56DAFFFF7AEFADE
:10121000001B02284FF00300F4D90EE7411E002006
:10122000B0EB116F1CBF012070474EF21002CEF2DE
:10123000000251604EF62351CEF20001F0230B70F4
:1012400007219060116070477047000070470000F0
:1012500090F83C20012A4FF0020236D010B580F8F9
:101260003D200268D2F804E0D2F808C00C682EF0E5
:101270007003234340F2FF74C4F20004A24253609F
:101280000ADCB2F1804F13D040F20043C4F20003F5
:101290009A420DD011E000BF42F60043C4F20103B0
:1012A0009A4205D040F60003C4F200039A4204D1EA
:1012B00049682CF08003194391600121002280F8D5
:1012C0003D1080F83C20BDE81040104670470000FB
:1012D000002804BF0120704710B5044690F83D0077
:1012E00028B9002084F83C00204600F06FF8022066
:1012F00084F83D00206840F2FF730268C4F20003E6
:1013000042F6004C9842C4F2010C15DCB0F1804F5B
:101310001AD040F20041C4F20001884214D0984231
:1013200018DCB0F1804F1DD040F20041C4F2000142
:10133000884217D01AE000BF604505D040F6000192
:10134000C4F200018842EAD1A16822F070020A4387
:101350009842E6DD604505D040F60001C4F2000188
:10136000884203D1216922F440720A43A36922F022
:101370008001D4F804E0E268194360450160C2626C
:10138000C0F828E002D16169CCF830100121416138
:101390000269D20703D0026922F001020261002033
:1013A00084F8461084F83E1084F83F1084F840100A
:1013B00084F8411084F8421084F8431084F84410F3
:1013C00084F8451084F83D1010BD0000006842F616
:1013D0000041C4F20101884218BF704780B582B055
:1013E00041F21800C4F202000168002241F40061D9
:1013F00001600068002100F400600190019818204D
:10140000FFF7C6FB1820FFF7B1FB192000210022CF
:10141000FFF7BEFB192002B0BDE88040FFF7A6BB76
:1014200090F83D1001291CBF01207047022180F86F
:101430003D10006840F2FF72C168C4F200029042A1
:1014400041F00101C16009DCB0F1804F12D040F2DF
:101450000041C4F2000188420CD012E042F6004183
:10146000C4F20101884205D040F60001C4F2000137
:10147000884206D1816801F00701062904BF0020D7
:101480007047016841F001010160002070470000D1
:1014900090F83C20012A4FF0020200F0C58080B590
:1014A00080F83D20D0F800C04FF67772DCF80830A5
:1014B00023EA0202CCF808200B684F2B28DC1F2BF4
:1014C00044DD202B45D0302B43D0402B40F0AE8064
:1014D000D1F804E0C968DCF82030DCF8202022F0E4
:1014E0000102CCF82020DCF8182022F0F00242EAB9
:1014F000011123F00A0242EA0E02CCF81810CCF8CF
:101500002020DCF8081041F0470121F0300180E094
:101510006F2B27DDB3F5005F48D0B3F5805F7AD03D
:10152000702B40F08380D1E901E3C968DCF8082022
:1015300043EA0E0322F47F4243EA01211143CCF82F
:101540000810DCF8081041F0770162E00BB1102BB5
:101550006CD1DCF8081021F07001194341F007014B
:1015600057E000BF502B35D0602B5FD1D1F804E09D
:10157000C968DCF82030DCF8202022F01002CCF81A
:101580002020DCF8182022F4704242EA013123F0D6
:10159000A00242EA0E12CCF81810CCF82020DCF899
:1015A000081041F0670121F0100132E0D1E901E3B8
:1015B000C968DCF8082043EA0E0322F47F4243EABC
:1015C00001211143CCF80810DCF8081041F48041E7
:1015D0001FE000BFD1F804E0C968DCF82030DCF877
:1015E000202022F00102CCF82020DCF8182022F084
:1015F000F00242EA011123F00A0242EA0E02CCF89C
:101600001810CCF82020DCF8081041F0570121F028
:101610002001CCF808100022012180F83D100021A3
:1016200080F83C10BDE88040104670470122F3E787
:101630007047000070B504460068C5680669B107C8
:1016400016D515F0020113D06FF0020101610121DE
:1016500021778069800703D02046FFF7E9FF05E086
:10166000204600F08FF8204600F08EF8002020770A
:10167000700719D515F0040016D020686FF004012A
:10168000016102212177806910F4407F04D0204657
:10169000FFF7CEFF06E000BF204600F073F82046BB
:1016A00000F072F800202077300717D515F00800F9
:1016B00014D020686FF00801016104212177C0690E
:1016C000800703D02046FFF7B3FF05E0204600F077
:1016D00059F8204600F058F800202077F00619D578
:1016E00015F0100016D020686FF01001016108217C
:1016F0002177C06910F4407F04D02046FFF798FF9F
:1017000006E000BF204600F03DF8204600F03CF81F
:1017100000202077F00718BF15F0010002D1300635
:1017200009D412E020686FF001010161204600F049
:101730002DF8300609D515F0800006D020686FF02E
:10174000800101612046FFF77FFD700609D515F085
:10175000400006D020686FF040010161204600F093
:1017600029F8B00658BF70BD15F0200008D02168D8
:101770006FF0200220460A61BDE87040FFF766BDA9
:1017800070BD0000704700007047000040F2DC01AF
:10179000C2F20001884218BF704740F28000C2F2D6
:1017A0000000D0E90012013142F10002C0E900124C
:1017B0007047000070470000002804BF01207047F8
:1017C00010B5044690F8410028B9002084F8400084
:1017D000204600F063F8242084F841002068D4E912
:1017E0000212C36823F40053C360036923F4405317
:1017F0001A430261D4E904231143C268194341F238
:101800000C639A431143C1604169A26921F440719C
:10181000114343F60002C4F201029042416103D039
:10182000FFF7D4FA02E000BFFFF7E4FAD4E900239F
:10183000192148439900B0FBF1F048F21F5CC5F252
:10184000EB1CA0FB0C314FF69C734909C0F6FF73EB
:1018500001FB0300322303EB0010A0FB0C03F0207C
:1018600000EA531000EB0110C3F3431108449060E9
:101870001069202120F490401061506920F02A0066
:101880005061D06840F40050D0600020606484F85B
:10189000411084F84210606310BD000070B586B03E
:1018A000006844F20041C4F2000188424FF0000198
:1018B000CDE90411CDE9021120D043F60001C4F2B4
:1018C0000101884248D141F21800C4F202000168C7
:1018D0004FF4806641F480410160016801F4804169
:1018E00001910199016841F004010160006800F074
:1018F0000400019001984FF4007017E041F21800C5
:10190000C4F202004168082641F400314160416898
:1019100001F4003101910199016841F00401016075
:10192000006800F004000190019804200290022059
:1019300040F6000403900320C4F2010402AD0590B8
:1019400020462946FEF7FEFD0020CDE90300204693
:1019500029460296FEF7F6FD06B070BDFEE70000D0
:101960002DE9F04383B0044600680D4601680A9FE4
:101970000B9E41F4807199469046016020464FF0DD
:10198000011100223B46009600F0ACF850B12068EF
:101990000068C00544BF4FF400702064032003B00A
:1019A000BDE8F083206805F0FE0101610221C0F26C
:1019B000010120463A46334600F07AF920B1012071
:1019C00003B0BDE8F08300BF0020029020683246DB
:1019D000416902918069394602900298204600F0E0
:1019E000D3F958B1206C0428E9D12068016841F48A
:1019F00000710160012003B0BDE8F0832068B9F1F7
:101A0000010F0AD04FEA18210161204639463246BB
:101A100000F0BAF90028E5D120685FFA88F1016189
:101A2000002003B0BDE8F08370B50368044653F8A6
:101A3000140F400711D40E46481C29D086BB00BFA6
:101A40001868400527D4FEF791FE236853F8140F59
:101A5000400737D518684007F2D5002070BD00BF99
:101A600018684007F9D41868400514D4186840076E
:101A7000F3D4186840050ED418684007EDD41868F0
:101A8000400508D4186840074FF0000048BF70BDFB
:101A900018684005E4D56FF480601860042012E0F7
:101AA000154603E053F8140F4007D6D418684005D4
:101AB000F1D4FEF75BFE401B2368B042F2D95869AF
:101AC0004007EFD4202000212022216384F83D200C
:101AD00084F83E10226C10432064012084F83C10EE
:101AE00070BD00002DE9F041054600681E46144611
:101AF00001F47F0201338FB242D0DDF81880B2F5D5
:101B0000803F40F0878040693840C01BB0FA80F0C9
:101B10004009A04240F0C8804EB924E040693840F6
:101B2000C01BB0FA80F04009A04240F0BD80FEF733
:101B30001DFEA0EB08012868B142EFD94169394088
:101B4000C91BB1FA81F14909A142E7D19BE000BF6D
:101B500040693840C01BB0FA80F04009A0424FF005
:101B6000000040F0A280FEF701FE2868416939407C
:101B7000C91BB1FA81F14909A142E9D183E000BF53
:101B8000B2F5803F24D100BF41693940C91BB1FA89
:101B900081F14909A14240F0878041693940C91B60
:101BA000B1FA81F14909A14240F07E804169394092
:101BB000C91BB1FA81F14909A14275D14169394086
:101BC000C91BB1FA81F14909A142DDD06CE000BF27
:101BD00081693940C91BB1FA81F14909A14263D138
:101BE00081693940C91BB1FA81F14909A1425BD130
:101BF00081693940C91BB1FA81F14909A14253D128
:101C000081693940C91BB1FA81F14909A142DFD08C
:101C10004AE000BF80693840C01BB0FA80F040093C
:101C2000A04241D146B923E080693840C01BB0FAD8
:101C300080F04009A04237D1FEF798FDA0EB0801E3
:101C40002868B142F0D981693940C91BB1FA81F1E4
:101C50004909A142E8D116E080693840C01BB0FABA
:101C600080F04009A0424FF0000018BFBDE8F081AD
:101C7000FEF77CFD286881693940C91BB1FA81F102
:101C80004909A142E8D100202021286385F83D10B0
:101C900085F83E00296C41F02001296485F83C005C
:101CA0000120BDE8F08100BF0020BDE8F081000008
:101CB000F0B581B0044600681D4643698FB203EA5F
:101CC0000701B94202D1002001B0F0BD41691646BA
:101CD00001323FD049053FD4CEB100BFFEF746FDEB
:101CE000411B2068B14203D941693940B94215D13D
:101CF00041693940B942E6D041694905EED52BE04A
:101D000041693940B942DED04169490524D4FEF722
:101D10002DFD206841693940B942F1D0202023E0EF
:101D200041693940B942CED04169490514D441696D
:101D30003940B942C7D0416949050DD4416939409C
:101D4000B942C0D04169490506D441693940B94218
:101D5000B9D041694905E3D5016841F400710160DA
:101D60006FF480614161042000212022216384F806
:101D70003D2084F83E10226C1043206484F83C100F
:101D8000012001B0F0BD000070B50368044653F8AF
:101D9000140F000611D40E46481C29D086BB00BF84
:101DA0001868400527D4FEF7E1FC236853F8140FA8
:101DB000000637D518680006F2D5002070BD00BFB8
:101DC00018680006F9D41868400514D4186800068D
:101DD000F3D4186840050ED418680006EDD41868CE
:101DE000400508D4186800064FF0000048BF70BDD9
:101DF00018684005E4D56FF480601860042012E094
:101E0000154603E053F8140F0006D6D418684005B1
:101E1000F1D4FEF7ABFC401B2368B042F2D95869FD
:101E20000006EFD4202000212022216384F83D20E9
:101E300084F83E10226C10432064012084F83C108A
:101E400070BD00002DE9F04F85B041F21800C4F2DA
:101E50000200016840F6004941F01001016001688C
:101E6000C4F2010901F0100101910199016809F51D
:101E7000806541F0200101600168002201F020012D
:101E80000191019901684FF4005441F0040101608F
:101E900001684FF0000801F0040101910199016807
:101EA00041F00801016000684FF4005100F00800A3
:101EB000019001982846FEF753FCA9F5806630464C
:101EC000102100224FF0100AFEF74AFC4846282154
:101ED0000022FEF745FC01AF019401244FF0020BF4
:101EE00028463946CDE90248CDF810B0FEF72AFB66
:101EF00030463946CDE901A4CDE9038BFEF722FB3C
:101F0000282001A981E8110948463946FEF71AFB45
:101F10004FF40070CDE90108484639460394FEF7B6
:101F200011FB05B0BDE8F08F80B540F2880045F2A6
:101F30000041C2F20000C4F2000141F680220023F9
:101F40004FF4804CC0F2060280E80E00C0E9033C6A
:101F5000C0E90533C0E90733FEF70EFC002808BFCF
:101F600080BDBDE88040FEF7D3BA000080B586B0E2
:101F700040F2DC0042F600420021C2F20000C4F24E
:101F80000102472340F2E73C0591CDE90311CDE979
:101F90000011C0E90023C0E9021CC0E904118161FD
:101FA000FFF796F9002818BFFEF7B2FA4FF48050F9
:101FB000029040F2DC00C2F2000002A9FFF768FACA
:101FC000002818BFFEF7A4FA40F2DC00C2F20000BD
:101FD0006946FFF73DF9002818BFFEF799FA06B0E9
:101FE00080BD000080B540F2241043F60001C2F22B
:101FF0000000C4F2010100234FF00C0C4FF4E13259
:1020000080E80E00C0E90333C0E905C3C361FFF7F0
:10201000D3FB002808BF80BDBDE88040FEF778BA3A
:1020200080B540F26C1044F20041C2F20000C4F2EC
:10203000000100234FF00C0C4FF4E13280E80E0059
:10204000C0E90333C0E905C3C361FFF7B5FB00284E
:1020500008BF80BDBDE88040FEF75ABAFEE7000029
:10206000FEE700002DE9F04F85B040F2880400251E
:102070004FF480760127C2F200040DF1120B0DF12E
:1020800013084FF0000900BF09F1B0008DF81000EF
:1020900004A8CDE9000720467821002201230296FA
:1020A000FEF71CFC0DF11100CDE900072046782158
:1020B000002201238DF811500296FEF70FFC10202C
:1020C0008DF812002046782100220123CDE900B7C7
:1020D0000296FEF703FC4FF0000A00BF204678216D
:1020E000402201238DF81350CDE900870296FEF7B8
:1020F000F5FB0AF101004FFA80FABAF1FF3FEDDC7F
:10210000B9F1070F09F10109BED305B0BDE8F08FA1
:102110002DE9F04184B0C820FEF700FA40F20C0629
:10212000C2F20006307840F28804C2F200048DF852
:102130000F004FF4807801270DF10F05204678211C
:1021400000220123CDE90057CDF80880FEF7C6FB39
:10215000707878218DF80F00204600220123CDE908
:102160000057CDF80880FEF7B9FBB07878218DF8DC
:102170000F00204600220123CDE90057CDF808804A
:10218000FEF7ACFBF07878218DF80F002046002296
:102190000123CDE90057CDF80880FEF79FFB307989
:1021A00078218DF80F00204600220123CDE9005749
:1021B000CDF80880FEF792FB707978218DF80F003A
:1021C000204600220123CDE90057CDF80880FEF714
:1021D00085FBB07978218DF80F002046002201237D
:1021E000CDE90057CDF80880FEF778FBF07978212B
:1021F0008DF80F00204600220123CDE90057CDF8CD
:102200000880FEF76BFB307A78218DF80F002046AE
:1022100000220123CDE90057CDF80880FEF75EFBD0
:10222000707A78218DF80F00204600220123CDE935
:102230000057CDF80880FEF751FBB07A78218DF871
:102240000F00204600220123CDE90057CDF8088079
:10225000FEF744FBF07A78218DF80F00204600222B
:102260000123CDE90057CDF80880FEF737FB307B1E
:1022700078218DF80F00204600220123CDE9005778
:10228000CDF80880FEF72AFB707B78218DF80F00CF
:10229000204600220123CDE90057CDF80880FEF743
:1022A0001DFBB07B78218DF80F0020460022012312
:1022B000CDE90057CDF80880FEF710FBF07B7821C0
:1022C0008DF80F00204600220123CDE90057CDF8FC
:1022D0000880FEF703FB307C78218DF80F00204644
:1022E00000220123CDE90057CDF80880FEF7F6FA69
:1022F000707C78218DF80F00204600220123CDE963
:102300000057CDF80880FEF7E9FAB07C78218DF807
:102310000F00204600220123CDE90057CDF80880A8
:10232000FEF7DCFAF07C78218DF80F0020460022C1
:102330000123CDE90057CDF80880FEF7CFFA307DB4
:1023400078218DF80F00204600220123CDE90057A7
:10235000CDF80880FEF7C2FA707D78218DF80F0065
:10236000204600220123CDE90057CDF80880FEF772
:10237000B5FAB07D78218DF80F00204600220123A8
:10238000CDE90057CDF80880FEF7A8FA04B0BDE803
:10239000F08100007047000070470000FEF77EBB30
:1023A0007047000040F2DC00C2F20000FFF742B9C3
:1023B00040F2DC00C2F20000FFF73CB980B582B009
:1023C00000F016F840F2280042F2BD31C2F20000DF
:1023D0004FF0000CC0F60001083005220023CDE9C3
:1023E000001C00F02FFA02B080BD0000FEE70000E4
:1023F0002DE9F04381B040F22800C2F200000468E9
:10240000002C00F001810025012605274FF042082D
:102410004FF031090FE000BF22691030002AA07090
:1024200032D020469047E1782EE000BFE070A46AE9
:10243000002C00F0E980A16820798847E2785107F4
:1024400002D0218801312180B0EBD21F02D102F0ED
:10245000C7010EE006EBD20101F0070302F0C7014D
:1024600041EAC301032BE17004D302F0470141EAC2
:10247000C011E17001F00700052805D8DFE800F081
:10248000081E3458046400BF01F0F800CEE700BF16
:10249000A378C8B2C1F38012B2EBD01F03F00F00D3
:1024A00066D1E268A070002A00F09E802046904726
:1024B000A078E17866F3030097E000BFC8B2C1F3EB
:1024C0008012B2EBD01F57D12088C928AFD3A07893
:1024D000226A67F31F10A07012B120469047E1787E
:1024E00001F0F8000530A1E7C8B2C1F38012B2EBE9
:1024F000D01F4FD1A078E16800F00F00A07011B19B
:1025000020468847A07800F00F010F2906D0411C13
:1025100001F00F0100F0F0000844A070616909B1FA
:1025200020468847E078258000F0F80003307DE7FA
:10253000C8B2C1F38012B2EBD01F3FD120883D2832
:10254000FFF475AF53E000BFA378C8B2C1F38012A7
:10255000B2EBD01F03F00F007FF45EAF616A603012
:102560000029A0703FF463AF204688475FE700BFB3
:102570008030A0705BE700BFA078226966F31F106F
:10258000A07012B120469047E17801F0F800258054
:1025900002304BE720883D28FFF449AFA07800F0D7
:1025A0000F00022828D001287FF46EAFA26984F8BA
:1025B0000290002A7FF435AF66E700BFA07821695A
:1025C00066F31F10A07009B12046884720883B2879
:1025D00006D8E078258000F0F800023026E700BF3A
:1025E000E07800F0F80021E701202580A07001F0DC
:1025F000F80001301AE700BFE26984F80280002A7F
:102600007FF40FAF40E700BF01B0BDE8F0830000EA
:1026100001A000F08BBA00BF444F55424C453A43ED
:102620004C49434B0D00000001A000F07FBA00BFF1
:102630006C6F6E672070726573732072656C656174
:1026400073650D0001A000F071BA00BF53494E47F9
:102650004C453A434C49434B0D000000B0B582B0A5
:1026600040F22805C2F2000505F1200420462C2185
:10267000FDF75FFD48F28000688442F66910C0F6FD
:102680000000A86242F24560C0F60000A863286816
:1026900042F2116142F22962C0F60001C0F6000266
:1026A000E9632A6488B10146A14210D0896A61B108
:1026B000A1420CD0896A41B1A14208D0896A21B1F6
:1026C000A14204D0896A0029EED1A8642C6042F2AC
:1026D000BD340021C0F6000405F1080005220023E6
:1026E000CDE9004100F0AEF840F60040C4F2010030
:1026F0004FF40071FEF72EF8014603A002B0BDE8CA
:10270000B04000F03FB900BF25640D0A0000000092
:1027100002280FD0012818BF704740F60040C4F2CD
:10272000010000F5806089B14FF400510122FEF7ED
:1027300017B800BF40F600400029C4F201004FF076
:10274000080105D00122FEF70BB800BF4FF400517D
:102750000022FEF705B8000090B0FEF7ADF90024A6
:102760000120CDE90B44CDE9094406900A904FF4CD
:10277000E0104FF4803102250F9006A8CDE9071430
:10278000CDE90D51FEF74AFB20B1EFF3108072B690
:10279000FEE700BF0F20CDE901054FF48060CDE9D1
:1027A000040401A802210394FEF72EFA20B1EFF3EE
:1027B000108072B6FEE700BFFFF744FBFFF7B4FBE3
:1027C000FFF710FCFFF72CFCFFF7D0FB02200121E4
:1027D000FFF79EFFFDF7CCFD28B142F68330C0F62F
:1027E000000000F0A3F9FFF793FCFFF73BFC42F673
:1027F0007A30C0F6000000F099F940F2DC00C2F235
:102800000000FEF70DFE42F67910C0F6000000F061
:102810000DF8FFF723FF03A400F07EF8204600F038
:1028200085F9F9E772756E0D0000000000280FBFF2
:102830004FF0FF3040F27401C2F20001086018BF8F
:10284000002070472DE9F04381B0044600284FF086
:10285000FF305ED0DDF82080B8F1000F59D0164669
:1028600040F27402C2F200021168002951D0DDF872
:102870002490171D1D46384602689AB1A2420346AD
:102880000ED0106870B1A042134609D002684AB158
:10289000A242034604D0106820B1A0421346EBD1F7
:1028A0002068186088478019694104F1080282E8AD
:1028B00003033B6803B3D3E90226121A76EB010245
:1028C0001ED21F6807B3D7E90226121A76EB01025F
:1028D0001BD23B6883B1D3E90226121A76EB0102C0
:1028E0000ED21F6887B1D7E90226121A76EB0102D1
:1028F0001A46DED30AE000BF3A46002706E000BFD2
:102900003A461F4602E000BF00271A460020276013
:10291000146001B0BDE8F08370B540F27406C2F2F5
:1029200000063068D0B180477268AAB104460D46EF
:1029300002E000BF024678B1D2E90201231A75EB2A
:1029400001010FD313691068002B7060F2D0516938
:10295000104698477068EDE7002070BD4FF0FF30DB
:1029600070BD00BF001B70BD40F60040C4F2010006
:102970004FF40071FDF7EEBE40F28000C2F200009D
:1029800003C870470FB4054B10B503A9044A029859
:1029900000F018F810BC5DF814FB0000192B0008BB
:1029A0000000002002E008C8121F08C1002AFAD166
:1029B00070477047002001E001C1121F002AFBD1BF
:1029C000704700002DE9FF4F89B09B460446002563
:1029D00006E025280BD05A460B999047641C6D1CC5
:1029E00020780028F5D10DB02846BDE8F08F0027EB
:1029F000B8460122474900E0074314F8013F203B55
:102A000002FA03F00842F7D120782E2819D114F8E1
:102A1000010F47F004072A280ED06FF02F0220780C
:102A2000A0F1300109290CD808EB880102EB410123
:102A300000EB0108641CF2E70A98641C50F8048B50
:102A40000A9020780028CED0642808D0692806D0C3
:102A500075281ED05A460B9990476D1C58E00A996C
:102A60004FF00A0901C90A91002802DA40422D21DB
:102A700002E0390504D52B218DF82010012103E057
:102A8000F90704D02021F7E78A4608AE0DE00021BF
:102A9000FAE70A994FF00A0901C90A91F7E749468E
:102AA000FDF752FB303106F8011D0028F7D1ADEBE0
:102AB000060000F12009780701D44FF00108C8454D
:102AC00002DDA8EB090000E000208046002706E0B8
:102AD00008A85A46C05D0B9990476D1C7F1C57454E
:102AE000F6DB04E030205A460B9990476D1CB8F194
:102AF0000001A8F10108F5DC05E016F8010B5A46C3
:102B00000B9990476D1CB9F10001A9F10109F4DCA2
:102B1000641C65E70928010038B504468DF80000FB
:102B200069460320ABBE204638BD000010B5044600
:102B300001E0FFF7F1FF14F8010B04490028F8D178
:102B4000BDE810400A20FFF7E7BF000000000020AA
:102B5000000000000000000001020304060708094D
:102B6000000000000102030401020203040506073D
:102B700008090A0B0C0D0E0F101072756E20617093
:102B8000700D00647331386232305F696E69745F52
:102B90006661696CEFBC810D00000000C02B00086D
:102BA0000000002028000000A4290008E82B0008ED
:102BB0002800002090050000B42900080000000053
:102BC000000000000100000010000000AED580A849
:102BD0003FD30040A1C8DA1281CFD9F1DB40A4A6CF
:082BE0008D14AF0000127A0011
:04000005080000ED02
:00000001FF
